:020000040000FA
:203000004BC0000064C0000062C0000060C000005EC000005CC000005AC0000058C00000D3
:2030200056C0000054C0000052C00000EEC400004EC000004CC000004AC0000048C0000076
:2030400046C0000044C0000042C0000040C000003EC000003CC000003AC0000038C0000078
:2030600036C0000034C0000032C0000030C000002EC000002CC000002AC0000028C00000D8
:2030800026C0000024C0000022C0000020C000001EC000001CC0000011241FBECFEFD2E068
:2030A000DEBFCDBF11E0A0E0B1E0EAEFFCE302C005900D92AA33B107D9F711E0AAE3B1E0C3
:2030C00001C01D92AB35B107E1F772D314C698CF982F15C08091F200882371F48091E800E2
:2030E0008B7F8093E80003C08EB3882351F08091E80082FFF9CF02C08091F1009150992338
:2031000049F7089520914A0130914901809148019091470180933F0190934001C901809374
:203120004101909342010895DF93CF9300D000D000D0CDB7DEB780914501843009F45AC0CB
:20314000853030F4813059F0833009F0D7C01FC0853009F4A0C0863009F0D0C0C3C0809195
:203160004601823008F0CAC0CDDF80914601882361F480913F019091400123E0FC0120936A
:203180005700E89507B600FCFDCF85E008C080914601882311F0823029F4B4DF89E08093C7
:2031A0000101ACC0813009F0A9C020E030E040E050E0F90184918F3F81F0CA01AA27BB2762
:2031C00080933E013093400120933F018AE08093010185E080933B0191C02F5F3F4F4F4F68
:2031E0005F4F2030F0E33F07F0E04F07F0E05F0701F784C080914601833051F581E080935B
:203200003A0180914B0190914C01892B71F080914701813009F072C080914A019091490197
:2032200090933D0180933C0169C080914701882361F42CE088E190E00FB6F894A8958093D5
:2032400060000FBE2093600059C01092000156C0882309F053C0809147018F3F09F04EC077
:20326000E0E0F0E093E085E090935700E89507B600FCFDCF80935700E89507B600FCFDCFFE
:20328000E058FF4F20E3E030F20771F781E180935700E89533C0DE011196E5E0F1E083E079
:2032A00001900D928150E1F7DE011496E2E0F1E083E001900D928150E1F790914701809163
:2032C0004601882329F4FE01E90FF11D818107C08130A1F4FE01BC97E90FF11D808180935F
:2032E00050010CC080914601833041F480914701882321F48091480180933E0126960FB62B
:20330000F894DEBF0FBECDBFCF91DF9108952F923F924F925F926F927F929F92AF92BF9285
:20332000CF92DF92EF92FF920F931F93CF93DF938091590190915A0190934C0180934B01CB
:2033400080914D01882351F080914D01815080934D0180914D01882309F45D9A80914E0133
:20336000882351F080914E01815080934E0180914E01882309F45C9A80915401833009F4BA
:20338000B2C1843030F4813071F0823009F0E3C111C1853009F4C5C1853008F4BAC1863095
:2033A00009F0D9C1CDC15C9883E080934E018091E800877F8093E80080913A01882329F029
:2033C000B3DE5D9A5C9A10923A0120914B0130914C012115310529F42AC08EB3882309F42B
:2033E000BAC18091E80082FFF8CF8091F100809345012150304030934C0120934B01E6E4FC
:20340000F1E00CC08091F10081932150304081E0EB34F80719F43183208308C08091F2006A
:20342000882381F730934C0120934B017DDE80910101853009F0BAC080914B0190914C01F9
:20344000892B21F482E080930101B0C08AE140DE80913F018F713CDEC0914101D091420191
:2034600020913F013091400121968E01021B130B219780914601882309F093C018013694EE
:203480002794C901A0913E01B0E09C01AD0162E0E62EF12C012D112DE20EF31E041F151F25
:2034A00059016A0190E099249394B5E0A3E048C08091F200882371F48091E8008B7F8093AA
:2034C000E80004C08EB3882309F445C18091E80082FFF8CF0894210831088091F100682F79
:2034E0008091F100782FF5010B0190925700E89511249F5F903419F021143104A1F4F90132
:20350000B0935700E89507B600FCFDCF2114310451F0F701A0935700E89507B600FCFDCFE0
:20352000A801970190E042E0442E512C612C712CE40CF51C061D171DA40CB51CC61CD71CF1
:203540002114310409F0B4CFD0934001C0933F0181E180935700E89527C08091F200882370
:2035600071F48091E8008B7F8093E80004C08EB3882309F4F0C08091E80082FFF8CF609159
:20358000F10080913F0190914001A7D380913F019091400101969093400180933F010150BB
:2035A000104001151105C9F680E192DD8091E8008B7FC3C08091E800877F8093E8005D988B
:2035C00083E080934D0104C08EB3882309F4C3C08091E80080FFF8CF80910101893091F06B
:2035E0008A3069F480914601813049F480913F01909140018093F1009093F1009BC0809137
:20360000500196C0609141017091420120913F01309140016F5F7F4F7B01E21AF30A6150D7
:20362000704080914601882389F5870116950795C901A0913E01B0E09C01AD011FC0809185
:20364000F200803271F48091E8008E7F8093E80004C08EB3882309F47EC08091E80080FFFD
:20366000F8CFF901859194918093F1009093F100015010402E5F3F4F4F4F5F4F0115110502
:20368000F1F67093400160933F0129C0823039F523C08091F200803271F48091E8008E7F00
:2036A0008093E80004C08EB3882309F454C08091E80080FFF8CF00913F0110914001C80193
:2036C00004D38093F1000F5F1F4F1093400100933F010894E108F108E114F104D1F682E0EB
:2036E0008093010127C08091E800877F8093E80080913B018093F1001092F1001092F1005D
:203700001092F100809101018093F1001092F10011C08091E800877F8093E80010923B01C3
:2037200019C08091E800877F8093E800809101018093F1008091E8008E7F8093E8000AC0D4
:203740008091E800877F8093E8005D9A5C9A82E08093010187D0DF91CF911F910F91FF9005
:20376000EF90DF90CF90BF90AF909F907F906F905F904F903F902F9008952BD181E085BF97
:2037800015BE089584B7877F84BF88E10FB6F89480936000109260000FBE81E085BF82E032
:2037A00085BF8AB180638AB98BB180638BB90CC1E9DF789401C080D2809100018823D9F7C0
:2037C00080913A018823B9F7D8DFE0913C01F0913D010995FA01923071F0933089F0913065
:2037E00029F488E091E022E130E019C080E090E020E030E014C08AE191E02BE130E00FC06C
:20380000882339F480913501282F30E085E391E006C080914301282F30E083E491E09183DB
:203820008083C90108958091EB0081608093EB001092ED006093EC004093ED008091EE0016
:20384000881F8827881F08951092F4001092F0001092E8001092ED00EBEEF0E080818E7FD6
:20386000808308958091530188238CF403C08EB38823B1F08091E80082FFF9CF8091E8008D
:203880008B7F8093E80008958EB3882349F08091E80080FFF9CF8091E8008E7F8093E80020
:2038A00008959C014091590150915A014617570718F4F90120E038C06115710511F0AB0115
:2038C000F8CF8091E8008E7F8093E80040E050E0F0CF8091E80083FF02C081E008958091C5
:2038E000E80082FD2DC08EB3882381F18EB3853079F18091E80080FF17C09091F20006C08E
:2039000081918093F100415050409F5F4115510511F09032A8F320E0903209F421E0809197
:20392000E8008E7F8093E8004115510591F6222381F606C08EB3882349F08EB3853041F096
:203940008091E80082FFF6CF80E0089582E0089583E0089554D056D01EBA1092510184E0B2
:2039600089BD89B5826089BD09B400FEFDCF8091D800982F9F779093D80080688093D80080
:20398000809163008E7F809363008091D8008F7D8093D8008091E0008E7F8093E00080914E
:2039A000E1008E7F8093E1008091E20081608093E2008091E100877F8093E1008091E2007D
:2039C00088608093E2000895C5DF81E0809352010895C0DFE0EEF0E0808181608083E8ED6E
:2039E000F0E080818F7780830AD00CD019BCE3E6F0E08081816080831092520108951092B0
:203A0000E20008951092E10008951F920F920FB60F9211242F933F934F935F936F937F939E
:203A20008F939F93AF93BF93EF93FF938091E10080FF1BC08091E20080FF17C08091E10003
:203A40008E7F8093E1008091E2008E7F8093E2008091E20080618093E2008091D8008062DC
:203A60008093D80019BC1EBA26D18091E10084FF29C08091E20084FF25C084E089BD89B516
:203A8000826089BD09B400FEFDCF8091D8008F7D8093D8008091E1008F7E8093E100809193
:203AA000E2008F7E8093E2008091E20081608093E20080915101882311F481E001C084E0C0
:203AC0008EBBF9D08091E10083FF22C08091E20083FF1EC08091E100877F8093E10082E0DD
:203AE0008EBB109251018091E1008E7F8093E1008091E2008E7F8093E2008091E2008061CD
:203B00008093E200A1DE80E060E042E28CDED3D08091E10082FF0AC08091E20082FF06C0E9
:203B20008091E1008B7F8093E100C5D0FF91EF91BF91AF919F918F917F916F915F914F9130
:203B40003F912F910F900FBE0F901F9018951F93DF93CF9300D0CDB7DEB7E3E5F1E0809155
:203B6000F100819381E0EB35F807C9F79091530180915401853011F1863040F48130B9F02A
:203B8000813070F0833009F081C011C0883009F453C0893009F462C0863009F077C02DC0E3
:203BA000903809F474C0923809F070C070C0992309F46DC0923009F069C069C0992309F041
:203BC00065C0109155018091E800877F8093E80049DE04C08EB3882309F459C08091E800E9
:203BE00080FFF8CF812F8F7711F492E001C093E09EBB80688093E3004AC09058923008F03B
:203C000045C0809155019091560160915701AE014F5F5F4FDFDDBC010097C9F18091E800A9
:203C2000877F8093E80089819A813BDE8091E8008B7F8093E8002BC0903841F58091E80065
:203C4000877F8093E800809151018093F1008091E8008E7F8093E80005DE19C09923B1F4DE
:203C600090915501923098F48091E800877F8093E80090935101F6DD80915101882311F42A
:203C800083E001C084E08EBB16D001C040DB8091E80083FF0AC08091EB0080628093EB0070
:203CA0008091E800877F8093E8000F900F90CF91DF911F91089508958EB3882329F08091FC
:203CC000E80083FF01C043CF0895F999FECF92BD81BDF89A992780B50895262FF999FECF46
:203CE0001FBA92BD81BD20BD0FB6F894FA9AF99A0FBE01960895F894FFCF01021E94892050
:203D0000DCFB1201100100000020EB03EF2F00000001000109021B00010100803209040093
:143D20000000FE0102000921030000000C0001040309040040
:0400000500003000C7
:00000001FF
