:020000040000FA
:043000000C94101EFE
:04302C000C94931D50
:2030730012010002FF010020EB03EF2F000001020301090212000101008032090400000017
:20309300000000000C03410054004D0045004C001E03410054006D0065006700610031001A
:2030B30036005500320020004400460055000C0331002E0030002E00350004030904130118
:0A30D3000C0100000C000001723E29
:2030DE0012BD01BDF89A00B50895F999FECF12BD01BD20BDFA9AF99A01E00895F999FECF94
:0230FE000C9430
:203100006F18F80104910895F801349131962491890108950091610000930C0100E800938F
:20312000610001E00093610005BF02E005BF0C94A818E3E6F0E000810E7F0083A89507EF32
:2031400004BFE0E6008108610083F08301E008950E948A1D0E94911DFDCF0895E8EDF0E0E1
:2031600000810F771CD00068008341D009B500FFFDCFE8EDF0E000810F7D11D00F7D008335
:20318000E0EE00810E7F0BD00B7F0083E2EE0081016005D00860008378940C94761B008339
:2031A0000081089500910D01002321F401E000930D01D4DFEDE1F2E00081018100FF0DC076
:2031C000008111811E7F1183008301E00093EA0000E00093EA0000931C0200E00093E90060
:2031E0000091E80003FF02C00E94F31B0895A895E0E6F0E000810861008300E40083F1A30A
:20320000F0A3F5A3F4A301E006BBE1E8008103600083E2E6008104600083008103FFFDCF9B
:20322000F78FA89507EF04BFE0E6008108610083F083E2E6008108600083F08322A133A12E
:20324000F78FF68FF3A3F2A301E006BB2D3D354010F006E001C002E009BD08950E94301EDB
:20326000239746D1F093090124D204811581012B51F43DD100910701002309F4C7C000E040
:2032800000930701C3C0A9D102FFFDCF018500930601018500930E01018500930F010185D2
:2032A0000093100101850093110101850093120100910A01209112013091110140911001FE
:2032C00050910F01109106011A9541F01250B9F01A95B9F11A9509F47DC096C010910E0122
:2032E000113021F411E010930B0102C0F0930B0191D00C3F11F416D188C076D186C08AD0C0
:2033000010910E01112329F01A9549F01A95A9F07CC0F0930B010C3F09F077C0ECCF53D15B
:2033200003C049D109F471C00D911C9141D10F3FC1F305E00093090168C011E010930B01D9
:20334000EACFD1D031F0025009F440C00A9541F05CC0F8D00E94261F0FEF00930A0155C057
:20336000552319F05A9589F050C001E005BFF5BF0DEF04BF60D031D103FFFDCF5ED0F9BD58
:2033800058D008E000936000FFCF01E005BFF5BF52D023D103FFFDCF50D04BD0F9BD0FEF30
:2033A0001FE004C009811A810150104009831A8309811A81012BB1F700E8009361000091F5
:2033C0000C01009361000C940000FFCF01E000930B011BC088D019F00A9541F016C0535079
:2033E000A0F4B0D002E0009308010FC0505339F05A9541F05F52A9F35A9599F306C002E010
:203400000883EFCF01E0FCCF9DD071D02396E4E00C943D1E50930101409300013093030111
:203420002093020110811B7F108310811F7710830895E8ED09C086D05AC071D058D0F894BE
:20344000E0EECCD0016002C000810F770083089521974ED000910601035019F00250B9F0F3
:203460000BC041D021F00A9559F00A9529F400910A010C3F19F456D02196089567D0FCCF4B
:2034800000910101018700910001018711C010910F0129D019F00A9571F0EECF112329F069
:2034A0001A9529F01A9519F003C005E0EECFF1871ED045D0E1CF105339F01A9539F01F5227
:2034C00071F01A9571F0F4CF08E5DFCF00E010E020E030E00E94941E0093F100E9CF02E0CB
:2034E000F6CF04E0F4CF00910E010023089522C00ED009D008D00093040109D00093050185
:20350000E8EEF0E00CC008830091F10008830091F1000895EBEE62D000620083E8EE00813B
:20352000077F94CFF7DF02E00093080103E000930901089556D0008100FFFDCF08954DD005
:2035400002FFFDCF00810B7F00837ECF0E942F1E3AD006C02DD00093F1002DD059F441D028
:20356000082F092BA9F039D002FD12C0008100FFFDCF4424042D4394003289F300910B0166
:2035800000230D911C9131F311970E947D18E3CF24D000FFFDCF00810E7F0083008100FF38
:2035A000FDCF008102FFFDCFCDDFE5E00C943C1E11970C9481180D911C910F5F1F4F1C93CF
:2035C0000E930197089575D08281938100811181801B910B0196DF010895E8EEF0E0008134
:2035E0000895FBDF0E7F32CF0E942C1E62D080819181A081B181AF71048115810052104065
:20360000048315830AC000910B01002331F4A301920102E911E00E94BE1E4ED0D8F16624DA
:2036200077242C0114C073DFF301EE56FE4F008301E0600E00E0701E01960091F20000239A
:2036400011F03AD0D8F4C9DF0B7F0083FDDE34D0D0F2F301B096E238F040A8F60091E800A2
:2036600002FFFCCF0091F20024D024813581201B304024833583E1CF4ADFAA95AA23E1F7E5
:2036800000910B01013079F62091F1008C010E947418D2CF04811581012B21F09EDF02FF19
:2036A000FDCF50DF9EDF008100FFFDCFE8E00C94391EE0E0F1E00895FCDF02811381081748
:2036C00019070895EBEEF0E0208121602083018302810270012B0283EDEE00810260008354
:2036E000EEEE0081000F00E0001F089500E009D000FD05C0F093E90010E302E0E3CF00E074
:2037000008950093E900EBEEF0E0008108950F770132B9F5112379F11A9559F01A9561F0CC
:203720001A9569F01A9509F11A95D1F01A95E9F026C00E942E1922C00E94281A1FC026D076
:2037400000910901018701E00187F187F187009108010187F1870E949A1A0E949F1A0EC0D4
:2037600015D000910801018707C002E00093080100E0009309010AD00E949A1A03C00E94EB
:203780008A1A02C001E0089500E00895E8EEF0E00081077F0083089508950350F9F41123EA
:2037A00039F01A9551F01A9581F01A9599F016C004E016D00DEC10E303C011D007E910E385
:2037C000E6E1F2E000831183DDCF0EE109D003EA10E3F6CF04D001EC10E3F2CFD5CF0CE01B
:2037E00000931902089528D100931B02D1D0212F112329F12A95E9F02250F1F0225099F0B0
:203800002A9549F0225061F02A9581F02A95E1F02A95E9F023C0003809F447C00C94871B34
:203820000038E1F7C3C00023C9F71EC00023B1F72DC0033098F727C1033080F700C100382F
:2038400068F3033858F7C5C0013841F75DC1013051F41AD0008100FD06C0FCCF0E94871BBC
:20386000002309F41ED008951091E3001078E4D00F77012B0093E30007D0008100FFFDCF92
:20388000E3EE00810068C9C09FD0D1C081D0123040F49AD010931C02CAD000911C020C940A
:2038A000CC1BEBEEF0E07DD091C0BA93AA93229700E0009318026CD0BFD0202F2A9519F028
:2038C0002A95E9F022C002E10093190203E710E3E6E1F2E000831183ADD00883ADD009833F
:2038E00073D00091190210E02881398102171307A8F40F7181F401E0009318022EC002E163
:203900000093190205E810E3E3CF0E94CD1B002319F741D038C0F09318021FC02093190257
:203920001CC0008100FFFDCF10E0A6E1B2E0012F1395003289F0ED91FC91119704910093F8
:20394000F1002D913C912F5F3F4F3C932E93FD0103810A95038359F768D000911902002341
:2039600019F0008102FFDDCF2CD002FD0BC000911802013021F4008100FFFDCF58D0008164
:2039800002FFFDCF4CD000832296A991B99108951091F1000895EBEEF0E003D00081077F30
:2039A0000895008100620083E8EE08950DD000911C02018706D00F770083008102FFFDCF50
:2039C000A7C035D000810895E8EEF0E00081077F24C030D010911B02105829F01A9519F0D5
:2039E0001A9561F019C0F0DFF18700E00093F1001CD0008102FFFDCF12D00FC0E8EEF0E0B2
:203A00001081177F10830F7710E0F801E65EFD4F00810093F100E9CFBEDF008308950081F2
:203A20000B7F008300810F770895E8EEF0E000810E7FF3CF01D000D00091F100089500910E
:203A40001B02013039F00230E9F456D0D1F4F4DF0F7719F44ED0A1DFE0CF0093E90049D0AD
:203A6000108110FF0CC010811062108310E03ED021E0F801E65EFD4F208342D0EDCF36D045
:203A8000EACF0FDF089500911B02002311F0013019F42FD082DFC1CF023039F52DD021F56F
:203AA0002091F1002F772093E90023D0008100FF19C079F000810061008301E010E0422FC6
:203AC0000E94221E0093EA00F093EA0000810860008300E00BD030E0F901E65EFD4F0083D6
:203AE0000FD0D9CF03D0D6CFDCDE0895F093E9000895EBEEF0E008959FDF4ADF00230895BA
:203B000063DF00810E7F0895BFDE008102FFFDCF86DF83CFE3E6F0E000810E7F00830C944C
:203B2000AD180C94D2188A93FA93EA933A922A921A920A927A936A935A934A933A932A93E1
:203B40001A930A938FB760D002FF05C05AD002FF02C00BEF53D0E1EE008100FF0DC051D098
:203B600000FF0AC00EEF4AD00081006100830FEE45D04ED000623FD047D004FF0EC041D066
:203B800004FF0BC0E8ED00810F7D00830FEE018738D00F7E3CD000642ED036D005FF0DC093
:203BA00030D005FF0AC000810F7E00830FED26D000810F7D2CD000681ED026D003FF0AC093
:203BC00020D003FF07C007EF19D00E94761B20D0116011D08FBF09911991299139914991E8
:203BE0005991699179910990199029903990E991F991899118951183008308950093E10020
:203C00000895E2EE00810895E1EEF0E0FBCF0083EDE1F2E000811181089500008895FECFF3
:203C20000EE50DBF02E00EBFCFEDD2E00E949918002311F00E94561E0E948A180E940D1E0A
:203C40000C940D1E4A951AF0000F111FFBCF0895BA92AA929A928A927A926A925A924A926A
:203C6000BA93AA939A938A930895BB84AA84998488847F806E805D804C80BB81AA81998126
:203C80008881F0E00FB6F894CE0FDF1F0FBE089520E006D0E9F70895259102D0E9F708955D
:203CA0002D9301501040202F212B089581ED90E3FC0105911491FC013296A591B491FC0115
:203CC000349625913491422F432B19F0F901E4DF01C0DEDF069610E38D3D910748F30895B3
:203CE0002F930CD02F9101D008953CD0F12FE02F45E047BFE89536D012D0089533D0F12F6D
:203D0000E02F43E047BFE8952DD008952BD0F12FE02F43E047BFE89525D001D0089522D02F
:203D200041E147BFE8951EC01DD0F12FE02F41E247BFC895002D16C015D0F12FE02F49E01E
:203D400047BFC895002D0EC0F32FE22F012E102E41E047BFE89506C005D0002E29E027BF09
:203D6000E89500C0022E27B720FDFCCF202D0895022E27B726FDFCCF202D08950E94281E58
:203D800022974801C901DA0110C05BD001E0A00E00E0B01E00E4A01600E0B00608F440C018
:203DA000830120E030E00E94751E0A2F0B2B09F440C0082F0F7710E02C01401A510A32010C
:203DC00000E4A02E03C00A2F0B2BE1F04816590680F0F40101914F010983119729F001914B
:203DE0004F010883119711C0F2013196049108830CC0F201049109833196E817F907A1F757
:203E0000F401EDCF1BD0088319839201088119810E94A41E16D0AA94B1F62301AA24BB2429
:203E20000DD0312F0F3F3F4F09F4AFCF83011DD0B7CF01E02296ECE00C94351E82010C947C
:203E4000841802E0400E00E0501E08959A938A9380E090E08C0109D080589F4F8F3F0FE2A6
:1E3E60009007C0F389919991089520E030E00C947E1E00000000000000000000FC00D1
:1C3FE4000C94701E0C94941E0C949C1E0C94A41E0C94751E0C94861E0C94AC1EA4
:0400000500003000C7
:00000001FF
