:1030000039C000009BC0000099C0000097C00000BC
:1030100095C0000093C0000091C000008FC0000068
:103020008DC000008BC0000089C00000CDC0000032
:1030300085C0000083C0000081C000007FC0000088
:103040007DC000007BC00000DFC2000077C0000030
:1030500075C0000073C0000071C000006FC00000A8
:103060006DC000006BC0000069C0000067C00000B8
:1030700065C0000011241FBECFEFD2E0DEBFCDBF80
:10308000E3E0F0E089E080935700849180FD12C076
:1030900004B601FE0AC081E02091750130917601ED
:1030A00022343C4D19F080E001C081E094B79D7F4F
:1030B00094BF11C004B603FE0AC081E020917501DF
:1030C0003091760122343C4D19F080E001C080E05F
:1030D00094B7977F94BF20E030E0F9014591549177
:1030E0008823B9F04F3F5F4FA1F084B7877F84BF3B
:1030F0000FB6F894A8958091600088618093600075
:10310000109260000FBE1092760110927501F901C5
:10311000099511E0A0E0B1E0E6EDFDE302C0059005
:103120000D92A835B107D9F721E0A8E5B1E001C0BB
:103130001D92A537B207E1F775D24BC661CF8091DA
:103140006C0187FF0FC08091E80082FD04C08EB340
:103150008111F9CF10C08091E8008B7F0AC08EB337
:10316000882349F08091E80080FFF9CF8091E80042
:103170008E7F8093E8000895E4E6F1E035812481B4
:10318000938182819093620180936301C90190933E
:1031900060018093610108958823A9F09091F20065
:1031A00091110DC09091E8009B7F9093E800909161
:1031B000E80092FD06C09EB39111F9CF04C0909132
:1031C000F1008150E9CF08951F920F920FB60F9230
:1031D00011248F938091E10080FF15C08091E2005F
:1031E00080FF11C08091E2008E7F8093E200809189
:1031F000E20080618093E2008091D8008062809339
:10320000D80019BC1EBA8091E10084FF2DC08091C6
:10321000E20084FF29C084E089BD86E089BD09B44D
:1032200000FEFDCF8091D8008F7D8093D8008091E3
:10323000E1008F7E8093E1008091E2008F7E809399
:10324000E2008091E20081608093E200809174014D
:10325000882311F084E007C08091E30087FD02C05D
:1032600081E001C083E08EBB8091E10083FF2AC032
:103270008091E20083FF26C08091E100877F8093E8
:10328000E10082E08EBB109274018091E1008E7F9C
:103290008093E1008091E2008E7F8093E200809134
:1032A000E20080618093E2008091EB008160809376
:1032B000EB001092ED001092EC0082E28093ED00A2
:1032C0008091EE008F910F900FBE0F901F90189578
:1032D0009FB7F89407B600FCFDCFF999FECF809513
:1032E00029E0E1E0F0E0082E20935700E8959FBF29
:1032F0000895E1E0F0E089E080935700849108951B
:1033000029E0FC01209357008491089521E2FC01FB
:10331000209357008491089507B600FCFDCFF999DA
:10332000FECF21E0FB010A0120935700E89511240C
:1033300008950F931F93611520E37207810591058E
:1033400070F441E08B019C010F771127222733276E
:10335000012B022B032B09F040E0242F01C020E0B9
:1033600020FF14C02FB7F89407B600FCFDCFF999E1
:10337000FECF35E0FB0130935700E89507B600FC1F
:10338000FDCF91E190935700E8952FBF1F910F91CA
:1033900008950F931F93611520E37207810591052E
:1033A00070F441E08B019C010F771127222733270E
:1033B000012B022B032B09F040E0242F01C020E059
:1033C00020FF14C02FB7F89407B600FCFDCFF99981
:1033D000FECF33E0FB0130935700E89507B600FCC1
:1033E000FDCF91E190935700E8952FBF1F910F916A
:1033F0000895CF92DF92EF92FF921F93CF93DF93C6
:1034000000D01F92CDB7DEB790915F01809164012B
:103410009923D1F0843049F480916501811108C06D
:10342000809166018F3F21F455C0853009F4A3C017
:103430008AE08093010183E080935E018091EB003C
:1034400080628093EB00D5C0843009F443C028F437
:10345000813051F08330D9F0CCC0853009F48BC075
:10346000863009F4B3C0C5C010916501123008F070
:10347000C0C082DE111109C06091620170916301C8
:1034800020915D01822F90E084DF85E007C080916C
:103490006501982F9D7F29F46FDE89E080930101FB
:1034A000A8C0813009F0A5C0E0E0F0E084918F3F32
:1034B00059F010925D01F0936301E09362018AE09C
:1034C0008093010185E093C03196E11520E3F20776
:1034D00069F78FC080916501833091F581E0809319
:1034E0005B01E0916A01F0916B0180916601309778
:1034F00061F0813009F07DC090916901809168018F
:103500009093590180935A0174C0811111C082E4D3
:103510009CED90937601809375019CE088E10FB655
:10352000F894A895809360000FBE9093600061C0EE
:1035300085919491019609F05CC01092000159C0E8
:10354000811157C0809166018F3F09F052C0C12C94
:10355000D12C7601C701B6011CDF80E8C80ED11C52
:10356000E11CF11CC11420E3D206E104F10491F73F
:1035700010925F013EC08091020190910301A091E1
:10358000040189839A83AB838091660190916501E0
:10359000911107C0833038F5FE01E80FF11D8181DC
:1035A00012C0913031F5813359F020F48033D9F4D1
:1035B00088E509C0803631F08136A9F489E803C076
:1035C0008EE101C084E980935C0113C080916501A4
:1035D000833079F48091660181110BC0809167017D
:1035E00080935D0106C08AE08093010188E08093AA
:1035F0005E010F900F900F90DF91CF911F91FF9080
:10360000EF90DF90CF9008951F920F920FB60F9218
:1036100011248F9380E389B98F910F900FBE0F9083
:103620001F901895CF93DF9300D000D000D0CDB776
:10363000DEB784B7877F84BF0FB6F894A8958091D2
:103640006000886180936000109260000FBE90E07F
:1036500080E80FB6F89480936100909361000FBEEC
:1036600091E095BF82E085BF809163008E7F80935B
:103670006300909358011092E2001092E100809153
:10368000D8008F778093D8008091D800806880938D
:10369000D8008091D8008F7D8093D80084E089BDC8
:1036A00086E089BD09B400FEFDCF1EBA10927401F8
:1036B0008091EB0081608093EB001092ED001092FE
:1036C000EC0082E28093ED008091EE008091E100B9
:1036D0008E7F8093E1008091E20081608093E20020
:1036E0008091E20088608093E2008091E0008E7F0C
:1036F0008093E0008AB180638AB98BB180638BB913
:1037000081E080936F0083E0809381008BB18063C0
:103710008F7D8BB9789462E0362E90910001809174
:103720005B01992309F4ACC22EB32223D1F320917B
:10373000E80023FFF6CFECE6F1E08091F100819301
:1037400021E0E437F207C9F780916C018F7781326D
:1037500009F0ECC130E339B98091720190917301A5
:1037600090936B0180936A0180916D01833009F41D
:10377000A0C158F48130C9F0823009F0D7C18091DE
:10378000E800877F8093E80001C1853009F4B7C164
:1037900008F4ADC1863009F0C9C18091E800877F87
:1037A0008093E80030920101C0C18091E800877FDA
:1037B0008093E80080915B01882319F01ADE109253
:1037C0005B0180916A0190916B01009741F120911A
:1037D000E80022FD04C02EB32111F9CFA7C120912A
:1037E000F10020936401019790936B0180936A012B
:1037F000E5E6F1E08091F200882381F08091F1000C
:10380000819380916A0190916B01019790936B0174
:1038100080936A0181E0EA36F80761F7EADD80917A
:103820000101853009F0AAC080916A0190916B0175
:10383000892B19F430920101A1C08AE1ADDCA0907E
:103840006201B09063018A2D8F71A6DC2091600126
:10385000309161012F5F3F4F2A193B093E832D8331
:1038600080916501811176C0369527953E832D8321
:10387000650180915D01E82EF12CA982DA828B83AB
:10388000FC82212C8D819E81892B09F440C080917E
:10389000F2008823D1F08D819E8101979E838D83D4
:1038A0004091F1005091F100C701B60135DD23943C
:1038B0004601570192E0890E911CA11CB11C7501B3
:1038C000640120E422120EC011C08091E8008B7FB9
:1038D0008093E8008091E80082FDDDCF8EB38111F6
:1038E000F9CF24C18D819E81892B61F669817A810E
:1038F0008B819C811EDD2D813E81232B19F2C50118
:10390000B40147DD89829A82AB82BC82BACF8091B2
:1039100060019091610190936301809362012CC0DA
:103920008091F2008823D9F02D813E812150310908
:103930003E832D836091F10080916201909163013B
:1039400036D2809162019091630101969093630158
:10395000809362018D819E81892B11F70DC080912A
:10396000E8008B7F8093E8008091E80082FDDCCF47
:103970008EB38111F9CFDAC080E10EDC8091E800CE
:103980008B7FD1C08EB3882309F4D0C08091E8002A
:1039900080FFF8CF80910101893081F08A3059F49D
:1039A00080916501813039F49091620180916301C9
:1039B0009093F100B3C080915C01B0C0809162012E
:1039C0009091630120916001309161012F5F3F4F21
:1039D000281B390B3E832D8320916501211139C0AD
:1039E0002D813E81369527953E832D832C01809134
:1039F0005D01682E712C8D819E8101979E838D8340
:103A00000196F1F08091F200803269F0F201859127
:103A100094918093F1009093F10032E0430E511C99
:103A2000611C711CE8CF8091E8008E7F8093E800D4
:103A30008091E80080FDEACF8EB38111F9CF76C086
:103A40008091600190916101909363018093620184
:103A50002DC0223059F52D813E81232B39F18091E3
:103A6000F2008032B1F0809162019091630197D1B0
:103A70008093F1008091620190916301019690938F
:103A80006301809362018D819E8101979E838D8366
:103A9000E2CF8091E8008E7F8093E8008091E8007B
:103AA00080FDE1CF8EB38111F9CF40C0309201018A
:103AB00037C08091E800877F8093E8008091E8001C
:103AC00080FD04C08EB38111F9CF30C080915E01BA
:103AD0008093F1001092F1001092F1001092F10029
:103AE000809101018093F1001092F10019C0809142
:103AF000E800877F8093E80010925E0116C08091F5
:103B0000E800877F8093E8008091E80080FD04C092
:103B10008EB38111F9CF0AC0809101018093F10029
:103B20008091E8008E7F8093E80009DB8091E800B7
:103B300083FF97C080916C0190916D01963009F4DC
:103B40003DC028F4992351F09530B1F08AC09830E7
:103B500009F453C0993009F462C083C08D7F803866
:103B600009F07FC08091E800877F8093E800109281
:103B7000F1001092F1004CC0811173C030916E01C0
:103B80003F7739838091E3008078832B8093E30033
:103B90008091E800877F8093E800D1DA8091E80087
:103BA00080FFFCCF8091E30080688093E3008981EF
:103BB000811102C082E054C083E052C0805882303C
:103BC00008F04FC080916E0100916F0110E002304B
:103BD000110541F00330110551F00130110509F0D4
:103BE00040C07EC02BE130E0EBE2F1E087C08823EB
:103BF00009F47BC08130A9F57DC0803891F58091B2
:103C0000E800877F8093E800809174018093F10041
:103C10008091E8008E7F8093E80091DA22C08111C4
:103C200020C080916E0190916F0199270297CCF48A
:103C30008091E800877F8093E80090916E019983DE
:103C4000909374017CDA2981222319F034E03EBB81
:103C500008C08091E30087FD02C081E001C084E0DC
:103C60008EBB8091E80083FF58CD8091E800877F6C
:103C70008093E8008091EB0080628093EB004DCD53
:103C8000811152CD8FE99FE00197F1F700C000004C
:103C90001092E2001092E1008091E0008160809338
:103CA000E0008091D8008F778093D80019BC809174
:103CB0006300816080936300109258018AB18F7C09
:103CC0008AB98BB180638BB910926F00109281001A
:103CD00081E085BF15BEE0915901F0915A01099527
:103CE00022E130E0E6E4F1E009C024E030E0E7E280
:103CF000F1E004C020E230E0E5E0F1E08091E8008E
:103D0000877F8093E800809172019091730128175A
:103D1000390708F4C90140E0009759F12EB3222376
:103D2000C1F12530B1F12091E80023FD32C020918E
:103D3000E80022FD2AC02091E80020FFEDCF20916D
:103D4000F20030E0009751F02032310538F4419113
:103D50004093F10001972F5F3F4FF4CF41E02032B5
:103D6000310509F040E02091E8002E7F2093E80023
:103D7000D3CF4111D3CF09C08EB3882351F0853002
:103D800041F08091E80083FD04C08091E80082FF4B
:103D9000F3CF8091E8008B7F8093E80062CFF999A0
:103DA000FECF92BD81BDF89A992780B50895262F40
:103DB000F999FECF92BD81BDF89A019700B4021621
:103DC00039F01FBA20BD0FB6F894FA9AF99A0FBECF
:063DD0000895F894FFCFF6
:103DD600010220DCFB2003410072006400750069CB
:103DE600006E006F00200055006E006F002000443A
:103DF600004600550000000403090409021B0001E7
:103E0600010080320904000000FE010200092103BE
:103E16000000000C10011201100100000020EB034D
:083E2600EF2F00000001000174
:103FA000F8C9C7C9B9C9B2C9ABC9A3C991C90895EC
:083FB000089508950895089595
:103FE000DFCFDFCFDFCFDFCFDFCFDFCFDFCFDFCF61
:083FF000DFCFDFCFDFCFDFCF11
:083FF8000030000010DFFBDCCB
:0400000300003000C9
:00000001FF
