:100000008AC00000A3C00000A1C000009FC0000083
:100010009DC000009BC0000099C0000097C0000078
:1000200095C0000093C0000091C00000FBC4000018
:10003000B6C400008BC0000089C0000087C000006B
:1000400085C0000083C0000081C000007FC00000A8
:100050007DC0000089C5000079C00000A9C500006E
:1000600075C0000073C0000071C000006FC00000C8
:100070006DC0000009023E00020100C03209040008
:1000800000010202010005240010010424020605FB
:1000900024060001070582030800FF09040100028D
:1000A0000A0000000705040210000507058302107E
:1000B0000005120110010200000841234300010065
:1000C0000102DC0118034100720064007500690040
:1000D0006E006F00200055006E006F0000003203BC
:1000E000410072006400750069006E006F0020001E
:1000F00028007700770077002E006100720064000E
:10010000750069006E006F002E0063006300290017
:1001100000000403090411241FBECFEFD2E0DEBFAC
:10012000CDBF11E0A0E0B1E0E4E6FFE002C0059041
:100130000D92AC31B107D9F722E0ACE1B1E001C0DA
:100140001D92A234B207E1F76BD50AC759CF2091AF
:10015000E4003091E50095E64091EC00842F817039
:1001600040FF22C08091E80080FD1CC08EB3882330
:1001700099F0853099F08091EB0085FD11C0409198
:10018000E4005091E5002417350731F3915011F048
:100190009A01E2CF84E0089582E0089583E0089513
:1001A00081E0089580E008954091E80042FFDECFAD
:1001B000089580913A0287FF0FC08091E80082FD88
:1001C00004C08EB38111F9CF10C08091E8008B7705
:1001D0000AC08EB3882349F08091E80080FFF9CFF0
:1001E0008091E8008E778093E8000895982F9530ED
:1001F00068F59093E900981739F07091EC00209120
:10020000ED005091F00003C0242F762F50E021FD27
:1002100002C09F5FECCF3091EB003E7F3093EB004C
:100220003091ED003D7F3093ED003091EB00316077
:100230003093EB007093EC002093ED005093F000AE
:100240002091EE0027FDE5CF80E008958F70809328
:10025000E90081E00895FC019081911102C081E0E4
:1002600008952481A181B2816381892F8F708530A7
:1002700010F080E00895223010F442E001C046E022
:10028000E8E0F0E020E0EA17FB0720F42F5FEE0F34
:10029000FF1FF9CF2295207F422B6295660F660FD4
:1002A000607C991F9927991F692BA0DF8111D7CFF7
:1002B000E0CFFC01A281B3818D91B383A28326811B
:1002C0003781A217B30721F4248135813383228338
:1002D0009FB7F894228533852150310933872287CF
:1002E0009FBF0895FC01A081B1816C9380819181B1
:1002F000019691838083268137818217930721F4A9
:1003000084819581918380832FB7F894828593852A
:100310000196938782872FBF0895CF92DF92EF9245
:10032000FF921F93CF93DF93CDB7DEB7AA970FB697
:10033000F894DEBF0FBECDBFEAE3F2E082E492E0C4
:100340002091F10021938E179F07D1F78091E8004B
:1003500083FF01C18091000190E020913E02309125
:100360003F022817390709F0F6C080913B0281321D
:1003700061F020F4803209F441C0EDC0823209F40A
:10038000CDC0833209F4DDC0E6C080913A02813AE3
:1003900009F0E1C08091E800877F8093E8008091B8
:1003A000E80080FFFCCF8091140190911501A0918D
:1003B0001601B09117018093F100492F5A2F6B2F2E
:1003C00077274093F100AD01662777274093F1002E
:1003D0008B2F9927AA27BB278093F10080911801C2
:1003E0008093F100809119018093F10080911A01AE
:1003F0008093F1008091E8008E77AAC080913A0244
:10040000813209F0A8C08091E800877F8093E800DE
:100410008091E80082FD04C08EB38111F9CF9BC0AA
:100420003091F1002091F1009091F1008091F10064
:1004300030931401209315019093160180931701B6
:100440008091F100809318018091F100809319014F
:100450008091F10080931A018091E8008B7780935E
:10046000E800A7DE80911901813021F0823021F46B
:1004700010E203C010E301C010E080911801823047
:1004800009F4186080911A01873031F0883031F01A
:10049000863029F4126003C0146001C016605F9AB0
:1004A0001092C9001092C8001092CA00C0901401A6
:1004B000D0901501E0901601F0901701C11421EEC3
:1004C000D206E104F10491F0D701C601B695A795D3
:1004D00097958795BC01CD0160587B47814E9F4F12
:1004E000A70196011BD52150310902C020E130E05F
:1004F0003093CD002093CC001093CA00C11441EE7C
:10050000D406E104F10411F082E001C080E08093A0
:10051000C80088E98093C9005F981DC080913A02A5
:100520008132C9F48091E800877F8093E80041DE42
:1005300080913C0290913D029093110180931001B3
:100540000AC080913A02813231F48091E800877FBD
:100550008093E8002EDE8091E80083FFFEC1809149
:100560003A0290913B02953009F480C030F491300A
:10057000A9F168F0933091F1F0C1983009F4A1C16C
:10058000993009F4B1C1963009F0E7C190C08038C4
:1005900021F0823809F0E1C108C0809137029091C2
:1005A0003802992389F082600FC080913E028F70DB
:1005B000853008F0D2C18093E9008091EB0085FB83
:1005C000882780F91092E9009091E800977F909336
:1005D000E8008093F1001092F1007FC1282F2D7F59
:1005E00009F0BBC1882319F0823061F0B6C1809157
:1005F0003C02813009F0B1C1933009F080E0809372
:1006000038022EC080913C0281112AC080913E02A6
:100610008F702FEF280F243008F09FC18093E900DE
:100620002091EB0020FF1CC0933021F48091EB005F
:10063000806214C09091EB0090619093EB0021E0F8
:1006400030E0D90102C0AA0FBB1F8A95E2F7A09340
:10065000EA001092EA008091EB0088608093EB0042
:100660001092E9008091E800877F3AC1811175C13D
:1006700010913C021F778091E3008078812B80935A
:10068000E3008091E800877F8093E80092DD80910D
:10069000E80080FFFCCF8091E30080688093E30056
:1006A000111102C082E001C083E08EBB56C18058A8
:1006B000823008F052C180913C0290913D028C3D05
:1006C000B3E09B0709F076C083E08A838AE28983DE
:1006D0004FB7F894DE01139620E03EE051E2E32F9D
:1006E000F0E050935700E49120FF03C0E295EF70D3
:1006F0003F5FEF708E2F90E0EA3010F0C79601C098
:10070000C0968D939D932F5F243149F74FBF809101
:10071000E800877F8093E800809140029091410239
:100720008A32910510F08AE290E040E0FE013196B5
:10073000009769F12EB3222309F4BDC0253009F4D6
:10074000BAC02091E80023FDB6C02091E80022FD48
:100750002CC02091E80020FFEBCF2091F20030E088
:10076000009751F02830310538F441914093F10061
:1007700001972F5F3F4FF4CF41E02830310509F05A
:1007800040E02091E8002E772093E800D1CF41117E
:10079000D1CF0BC08EB3882309F48DC0853009F406
:1007A0008AC08091E80083FD86C08091E80082FFC6
:1007B000F1CF81C0292F33272230310541F023307A
:1007C000310551F02130310509F0C7C0D5C08EE3A5
:1007D00090E0E4E7F0E022C0992781309105A1F094
:1007E00058F0029709F0B9C0E4ECF0E0E4918E2FE4
:1007F00090E0E4ECF0E00FC0E2E1F1E0E4918E2F54
:1008000090E0E2E1F1E007C0EEEDF0E0E4918E2F40
:1008100090E0EEEDF0E0009709F49FC02091E80031
:10082000277F2093E80020914002309141028217F7
:10083000930708F49C0140E02115310561F18EB366
:100840008823C9F18530B9F18091E80083FD33C078
:100850008091E80082FD2BC08091E80080FFECCF02
:100860008091F20090E02115310559F08830910512
:1008700040F444914093F1003196215031090196A2
:10088000F2CF41E0089709F040E08091E8008E77D0
:100890008093E800D1CF4111D2CF09C08EB3882315
:1008A00051F0853041F08091E80083FD04C08091D3
:1008B000E80082FFF3CF8091E8008B778093E80017
:1008C0004CC0803809F049C08091E800877F809350
:1008D000E800809139028093F1008091E8008E77E2
:1008E0008093E80066DC39C0811137C080913C02FA
:1008F00090913D029927029784F58091E800877FC7
:100900008093E80010913C021093390252DC1111DF
:1009100006C08091E30087FD02C081E001C084E051
:100920008EBB8BE0E0E1F1E0DF011D928A95E9F7F3
:1009300082E0809304018093090183E080930E019B
:1009400081E091E088DC882341F086E091E083DC5F
:10095000882319F08BE091E07EDC8091E80083FF32
:1009600010C08091E800877F8093E8008091EB00C1
:1009700080628093EB0005C082E190E0E2EBF0E062
:100980004DCFAA960FB6F894DEBF0FBECDBFDF9154
:10099000CF911F91FF90EF90DF90CF9008951F921D
:1009A0000F920FB60F9211242F933F934F935F93A3
:1009B0006F937F938F939F93AF93BF93CF93DF9367
:1009C000EF93FF93C091E900CF708091EC00D82F96
:1009D000D17080FDD0E81092E9008091F000877F0F
:1009E0008093F000789499DC1092E9008091F000F7
:1009F00088608093F000CD2BCF70C093E900FF9109
:100A0000EF91DF91CF91BF91AF919F918F917F91A6
:100A10006F915F914F913F912F910F900FBE0F906B
:100A20001F9018951F920F920FB60F9211242F93BB
:100A30003F934F935F936F937F938F939F93AF9366
:100A4000BF93EF93FF938091E10082FF09C08091F3
:100A5000E20082FF05C08091E1008B7F8093E1007E
:100A60008091E10080FF15C08091E20080FF11C0FD
:100A70008091E2008E7F8093E2008091E2008061AD
:100A80008093E2008091D80080628093D80019BCE6
:100A90001EBA8091E10084FF2DC08091E20084FFA6
:100AA00029C084E089BD86E089BD09B400FEFDCF80
:100AB0008091D8008F7D8093D8008091E1008F7E57
:100AC0008093E1008091E2008F7E8093E20080912C
:100AD000E20081608093E20080913902882311F066
:100AE00084E007C08091E30087FD02C081E001C07F
:100AF00083E08EBB8091E10083FF25C08091E200FE
:100B000083FF21C08091E100877F8093E10082E034
:100B10008EBB109239028091E1008E7F8093E100BC
:100B20008091E2008E7F8093E2008091E2008061FC
:100B30008093E20042E060E080E058DB8091F000CA
:100B400088608093F000FF91EF91BF91AF919F91EA
:100B50008F917F916F915F914F913F912F910F9066
:100B60000FBE0F901F9018951F920F920FB60F9205
:100B700011248F9380913502882341F080913502B2
:100B8000815080933502811101C05D9A80913602B7
:100B9000882341F080913602815080933602811182
:100BA00001C05C9A8F910F900FBE0F901F90189507
:100BB0001F920F920FB60F9211242F933F934F93D2
:100BC0005F936F937F938F939F93AF93BF93EF93B5
:100BD000FF936091CE008EB3843089F42FB7F894E0
:100BE00080913302909134022FBF209131023091D5
:100BF00032022817390719F089E292E073DBFF917E
:100C0000EF91BF91AF919F918F917F916F915F9184
:100C10004F913F912F910F900FBE0F901F901895FD
:100C200084B7877F84BF0FB6F894A8958091600041
:100C3000886180936000109260000FBE90E080E8B1
:100C40000FB6F89480936100909361000FBE8AB153
:100C500080638AB98BB180638BB9809163008E7F8A
:100C60008093630081E080931C011092E200109257
:100C7000E1008091D8008F778093D8008091D800D0
:100C800080688093D8008091D8008F7D8093D800B1
:100C900084E089BD86E089BD09B400FEFDCF1EBA9F
:100CA00010923902109238021092370242E060E04E
:100CB00080E09CDA8091E1008E7F8093E10080915A
:100CC000E20081608093E2008091E200886080937E
:100CD000E2008091E0008E7F8093E00081E08093CD
:100CE0006E0084E085BD579AEDE1F2E04FB7F894CD
:100CF0008DE991E0918380839383828395838483BC
:100D00008DE192E09783868320E830E03187208769
:100D1000138612864FBFE9E2F2E04FB7F8948DE1F7
:100D200091E09183808393838283958384838DE98B
:100D300091E09783868331872087138612864FBF81
:100D40007894D3E02FB7F8948091270290912802ED
:100D50002FBF20912502309126022817390791F1E3
:100D60008EB3843079F58091140190911501A09192
:100D70001601B0911701892B8A2B8B2B19F18091C9
:100D800006018F708093E9008091E80082FF1AC00D
:100D90008091F200882321F06091F10070E002C0A0
:100DA0006FEF7FEF8091F200811105C08091E80024
:100DB0008B778093E8006F3F8FEF780719F08DE114
:100DC00092E090DA2FB7F894809133029091340238
:100DD0002FBF009709F43FC0209101012F7020938D
:100DE000E9002091E80020FF36C08031910510F025
:100DF0008FE090E0C82F8EB3843069F580911401A4
:100E000090911501A0911601B0911701892B8A2BA1
:100E10008B2B09F1E0912B02F0912C021081809133
:100E200001018F708093E9008091E80085FF0BC07D
:100E30001093F10089E292E03CDA5D98D09335029C
:100E4000C150C9F608C08091E8008E778093E80011
:100E50007ED9882369F38091C80085FF15C02FB71C
:100E6000F89480912702909128022FBF892B61F07E
:100E70008DE192E01EDA9091C80095FFFCCF80933F
:100E8000CE005C98D09336028EB3843079F5809191
:100E9000140190911501A0911601B0911701892BB1
:100EA0008A2B8B2B19F1809101018F708093E900BF
:100EB0009091E80090FF1AC09EB39430B9F48093EB
:100EC000E9008091F200882389F09091E8008091F8
:100ED000E8008E778093E80095FD08C038D981112D
:100EE00005C08091E8008E778093E8008EB3882358
:100EF00009F428CFC091E900CF709091EC00892FC0
:100F0000817090FD80E8C82B1092E9008091E80084
:100F100083FD03DACF70C093E90014CFA1E21A2E4B
:100F2000AA1BBB1BFD010DC0AA1FBB1FEE1FFF1F8D
:100F3000A217B307E407F50720F0A21BB30BE40BDD
:100F4000F50B661F771F881F991F1A9469F7609524
:100F50007095809590959B01AC01BD01CF010895DE
:040F6000F894FFCF33
:100F64000083100000010410000001820800000149
:0C0F740000000000000000000000000071
:00000001FF
