:0A000000020A7EEF2411FF0213B67E
:10000B00020385908046120EBC908045EFF0146081
:10001B000A24FB501A6004240670241214B090803A
:10002B004DEFF0908045E0242A120EB102136B9035
:10003B008045E0240A120EB112014CFD1213B622B8
:03004B00020F4A57
:100053000208C2E709F608DFFA8046E709F208DF7B
:10006300FA803E88828C83E709F0A3DFFA8032E3CB
:1000730009F608DFFA8078E309F208DFFA8070886E
:10008300828C83E309F0A3DFFA806489828A83E0A8
:10009300A3F608DFFA805889828A83E0A3F208DF97
:1000A300FA804C80D280FA80C680D4806980F28046
:1000B30033801080A680EA809A80A880DA80E2806C
:1000C300CA803389828A83ECFAE493A3C8C582C8C1
:1000D300CCC583CCF0A3C8C582C8CCC583CCDFE92B
:1000E300DEE7800D89828A83E493A3F608DFF9ECC7
:1000F300FAA9F0EDFB2289828A83ECFAE0A3C8C552
:1001030082C8CCC583CCF0A3C8C582C8CCC583CC78
:10011300DFEADEE880DB89828A83E493A3F208DFE7
:10012300F980CC88F0EF60010E4E60C388F0ED24B7
:1001330002B4040050B9F582EB2402B4040050AFBA
:1001430023234582239000A673BB010689828A83F9
:10015300E0225002E722BBFE02E32289828A83E483
:100163009322BB010CE58229F582E5833AF583E00E
:10017300225006E92582F8E622BBFE06E92582F82D
:10018300E222E58229F582E5833AF583E49322BBF3
:10019300010689828A83F0225002F722BBFE01F313
:1001A30022BC000BBE0029EF8DF084FFADF022E4EA
:1001B300CCF875F008EF2FFFEE33FEEC33FCEE9D29
:1001C300EC984005FCEE9DFE0FD5F0E9E4CEFD2250
:1001D300EDF8F5F0EE8420D21CFEADF075F008EFDB
:1001E3002FFFED33FD4007985006D5F0F222C39858
:1001F300FD0FD5F0EA22A3F8E0C5F025F0F0E58283
:10020300158270021583E0C838F0E822E88FF0A465
:10021300CC8BF0A42CFCE98EF0A42CFC8AF0EDA48A
:100223002CFCEA8EF0A4CDA8F08BF0A42DCC3825BD
:10023300F0FDE98FF0A42CCD35F0FCEB8EF0A4FE9D
:10024300A9F0EB8FF0A4CFC5F02ECD39FEE43CFC32
:10025300EAA42DCE35F0FDE43CFC2275F00875824E
:1002630000EF2FFFEE33FECD33CDCC33CCC582333D
:10027300C5829BED9AEC99E58298400CF582EE9B42
:10028300FEED9AFDEC99FC0FD5F0D6E4CEFBE4CD60
:10029300FAE4CCF9A88222B800C1B90059BA002DFA
:1002A300EC8BF084CFCECDFCE5F0CBF97818EF2FB3
:1002B300FFEE33FEED33FDEC33FCEB33FB10D703E2
:1002C300994004EB99FB0FD8E5E4F9FA227818EF8B
:1002D3002FFFEE33FEED33FDEC33FCC933C910D7EA
:1002E300059BE99A4007EC9BFCE99AF90FD8E0E4F7
:1002F300C9FAE4CCFB2275F010EF2FFFEE33FEEDCD
:1003030033FDCC33CCC833C810D7079BEC9AE8999C
:10031300400AED9BFDEC9AFCE899F80FD5F0DAE47E
:10032300CDFBE4CCFAE4C8F922EB9FF5F0EA9E4258
:10033300F0E99D42F0E89C45F022ECF0A3EDF0A338
:10034300EEF0A3EFF022A8828583F0D083D082124F
:100353000360120360120360120360E473E493A367
:10036300C583C5F0C583C8C582C8F0A3C583C5F0DE
:10037300C583C8C582C8228A838982E473C2AF80D9
:10038300FE3212038485D00B75D008AAE0C28CE537
:100393008A246CF58AE58C34FDF58CD28CEC241917
:1003A300F8E6BC040274FFC39581B4140040CE790F
:1003B30005780E16E608700BC2AFE630E103441869
:1003C300F6D2AF08D9EDEA8BD030010122D50DFC6E
:1003D300C0E0C0D0C0F0C083C082C000C001C00272
:1003E300C003C004C005C006C007E50C23240FF8F2
:1003F3007440C2AF46F6D2AFD201E50CFF23240FFF
:10040300F80F0808BF05047F00780FE630E4F20018
:10041300E50CC39F5020050C7418250CF8E6FDA6C7
:100423008108E6AE0CBE040274FFCDF8E86D60E00F
:1004330008E6C0E080F6E50CD39F4027E50C2419BD
:10044300F8E6AE0CBE040274FFFD18E6CDF8E581B4
:100453006D6006D0E0F61880F5E50C2418C8F61593
:100463000C80D3750D05E50C23240FF87F04C2AF70
:10047300E610E61E30E00310E20C7F0030E10730A7
:10048300E3047F0854F4547CC6D2AF54804207C2BD
:100493000122F6D2AFD007D006D005D004D003D0C6
:1004A30002D001D000D082D083D0F0D0D0D0E0C22F
:1004B30001227818A68174046006FF0876FFDFFB2B
:1004C3007F05E4780EF608F608DFFA780F763090A9
:1004D3001500740193C0E0E493C0E0750D054389F2
:1004E30001758A65758CFDD28CD2AFD2A92204EF37
:1004F300D3940440037FFF22740F2F2FF8E620E5E7
:10050300F4C2AFE64430F6D2AFAE0CEEC39F502137
:100513000E74182EF8E6F908E618BE040274FFFDFF
:10052300ED69600909E71919F7090980F3161680BF
:10053300DAEED39F400405810581EED39F402274F8
:10054300182EF808E6F9EEB50C02A981180606E69E
:10055300FDED6960091919E70909F71980F31E8090
:10056300D9EF2418F8E604F8EF2F0490150093F65A
:1005730008EF2F93F67F0022EFD3940440037FFF0D
:1005830022EF23240FF8E630E5F4C2AFE6548CF6ED
:10059300D2AFE50CB5070A74182FF8E6F58102030C
:1005A300FB502E74192FF8E6BF040274FFFD18E602
:1005B300F974182FF8FBE6FCE96C6008A805E7F668
:1005C3001D1980F4A803A6051FE50CB507E37F00FA
:1005D3002274192FF8E6FD1886010F74182FF8A658
:1005E30001088604E50CB50702AC81ED6C60080DCB
:1005F30009A805E6F780F4E50CB507DE89817F00DD
:1006030022EFD3940440037FFF22EF23240FF8C289
:10061300AFE630E50530E002D2E4D2E2C6D2AF7FE6
:100623000030E2010F0203CF8FF0E4FFFEE50C235D
:10063300240EF8C2A930F70D7F08E6600B2DF66093
:10064300325030800730F106EDF660277E02083025
:10065300F010C2AFE610E7250E30E20CD2AF7F04F4
:100663008014C2AFE610E71554EC4EF6D2AFD2A910
:100673000203FB7F0808EF4483F4C2AF56C6D2AF30
:10068300D2A954804FFF229080587428F0A3741E7F
:10069300F0A3743CF0A37401F0A3F0A3F0A37404DB
:1006A300F0A37402F0A3740AF09080BB74FFF0A36C
:1006B300F0A3F09080637404F0E4908084F012134C
:1006C300FA12147C120FE7E4F5947F0112062B90C3
:1006D30080BBE014B4080050F19006EA75F003A45F
:1006E300C58325F0C5837302070202070E020718AC
:1006F30002072202072F0207390207450207561293
:10070300133B2457F582E4348080419080BCE09011
:100713008085F080B5908085E0FF1204F280AB9075
:100723008085E0FF12057B121414809E9080BCE04C
:10073300908063F0809412133B2464F582E4348048
:10074300800A12133B2452F582E43480F583EFF0E0
:100753000206CD908061E0A3E0FF908061E0FD128E
:10076300146C0206CD908042120E1CE4A3F090801C
:1007730042E0FF908046E0FEC39F50749080431296
:100783000DFAF98E82758300120165FF74902E12A3
:100793000E14E06F908048F0604DE4908047F012B3
:1007A3000E02C000C001C002C003908047E0FFA357
:1007B300E0FEA807088002C313D8FC7E005401FFA3
:1007C300E4FCFDD003D002D001D000EB2FFFEE3AC2
:1007D300FEED39FDEC38FC90808B12033D90804791
:1007E300E004F0E0B408B8908046E004F00207713A
:1007F300908087120E05908042E075F008A4FFE414
:10080300FCFDEB2FFFEA35F0FEED39FDEC38FC90F3
:10081300808702033D90801FEFF0A3EDF0A3EBF080
:1008230078257C807D017BFF7A15791F7E007F20F0
:100833001201269080871203490000000090808BEC
:100843001203490000000074FF9080B8F0A3F0C2C7
:1008530090908020E0FF121391908021E0FF12100E
:10086300C67F051214441214D87F011212927FFF1F
:10087300120D40E4FDFF120960E4FDFCFF1212EECD
:1008830090801FE0FF121459E4FF121345E4FF1296
:10089300107E908022120DFAF9E4FF12000E908070
:1008A3008FE0B4FF0A7B017A8079257F2080087B63
:1008B300007A007900E4FF120EF8D2907F0022C084
:1008C300E0C0F0C083C082C0D075D000C000C001BA
:1008D300C002C003C004C005C006C007758030AFA6
:1008E300BEEF24FE605024FE6053240370549080B6
:1008F300BAE0FF24BBF582E43480F583E5BDF090D4
:1009030080C0E0601C74BE2FF582E43480F583E080
:10091300F5BDEFC394017F0050027F019080C0EFCB
:10092300F09080BAE02401FFE433FE7C007D0312E3
:1009330001A4EDF0800C9080BAE4F08005E4FF128E
:100943000604D007D006D005D004D003D002D001CE
:10095300D000D0D0D082D083D0F0D0E03290804588
:10096300EFF0A3EDF07F0212148B908047EFF07F3E
:100973000112148B908048EFF0908045E0FF24FA39
:1009830050062407603C80537401A807088002C303
:1009930033D8FCFD908047E04DF0908046E060083E
:1009A300908048E04DF08033908045E0FF7401A8CB
:1009B30007088002C333D8FCF4FF908048E05FF05F
:1009C3008019908047743FF0908046E060089080E3
:1009D30048743FF08005E4908048F0908047E0FD44
:1009E3007F021213B6908048E0FD7F010213B69098
:1009F3008011EBF0908010EFF0D3945040037F010F
:100A030022EDD3940340037F0122908011E0D3941D
:100A13000240037F0122C290AF051213919080110F
:100A2300E0FF1210C67F05121444E4FF121292E491
:100A3300FDFF120960E4FDFCFF1212EE908010E04E
:100A4300FF1214597F011213457B017A8079B37F1A
:100A53000612000E7B017A8079907D201214BAE48D
:100A6300FF12107E9080127414F0D290908012E0E6
:100A7300FF14F0EF70F6C2907F0022787FE4F6D87F
:100A8300FD758120020AC50204B5E493A3F8E4933B
:100A9300A34003F68001F208DFF48029E493A3F86E
:100AA3005407240CC8C333C4540F4420C8834004E0
:100AB300F456800146F6DFE4800B0102040810209F
:100AC3004080901185E47E019360BCA3FF543F30C6
:100AD300E509541FFEE493A360010ECF54C025E043
:100AE30060A840B8E493A3FAE493A3F8E493A3C8FB
:100AF300C582C8CAC583CAF0A3C8C582C8CAC5838C
:100B0300CADFE9DEE780BE908043120EBC908042CC
:100B1300EFF014601024FB600C24FE601724EA60DD
:100B23002A241E70391214B0120EEE908042E02473
:100B33000AFF80251214C4908042EFF0C39407503B
:100B43001D121513120EEE7F61800E908047740202
:100B5300F0908046F0C2917F1E1214F68009E49053
:100B63008047F0908046F0908046E0FF14F0EF60FD
:100B730011E4FF1214F6908043120EC5EF12019296
:100B830080E5D291908042E0FE908047E0FDEDFF4A
:100B930022908012EBF0908010EFF0D3945040033A
:100BA3007F0122EDD3940340037F0122908012E062
:100BB300D3940240037F0122120DF74A4B70037F47
:100BC3000122C290AF05121391908012E0FF121020
:100BD300C67F051214441214D87F011212927FFFAC
:100BE300120D40E4FDFF120960E4FDFCFF1212EE5A
:100BF300908010E0FF121459E4FF121345E4FF1232
:100C0300107E120DF7F9E4FF12000E7D20E4FF12AF
:100C13000003D2907F00229080B8E0F47003A3E039
:100C2300F47054908087E0FCA3E0FDA3E0FEA3E012
:100C3300FF90801F12033D7FA07E867D017C001202
:100C43000E36C312032C402FE47F107E27FDFC12C7
:100C53000E0212020F120E3612029A9080B8EEF0B4
:100C6300A3EFF09080871203490000000090808B6F
:100C7300120349000000009080B8E0FEA3E0FF22C9
:100C8300908001ED120E1DA3E09080B0F0908006DD
:100C9300120E28C290121391908001E0FF1210C629
:100CA3007F051214441214D87F011212927FFF128F
:100CB3000D40E4FDFF120960E4FDFCFF1212EEE4B7
:100CC300FF121345E4FF12107E908002120DFAF911
:100CD300E4FF12000E7D20E4FF120003D2907F0098
:100CE3002274FF908061F0A3F012131B90802212F4
:100CF300132B1208187B017A8079647F20120EF877
:100D03007B007A007900121498C2B9E4FBFA7D02E1
:100D13007F0212062B121034120C1A908061EEF02F
:100D2300A3EFF0908061E0F47003A3E0F460DCC211
:100D3300B9E4FBFA7D147F0212062B80CE90804526
:100D4300EFF07F0212148B908046EFF07F011214B4
:100D53008B908047EFF0908045E0FF24FA50062403
:100D630007601B80207401A807088002C333D8FCE6
:100D7300F4FD908046E05DF0A3E05DF08007E49031
:100D83008046F0A3F0908046E0FD7F021213B690F8
:100D93008047E0FD7F010213B69080BB120DB69031
:100DA30080BC120DB69080BDE0F580120DE2120DED
:100DB300E280E6E0F580E4FBFA7DFA7F8012062B01
:100DC300E4FBFA7DFA7F8012062BE4FBFA7DFA7FBF
:100DD3008012062BE4FBFA7DFA7F8012062B22E4B5
:100DE300FBFA7DFA7F8012062BE4FBFA7DFA7F8003
:100DF30012062B22908013E0FBA3E0FAA3E02290DB
:100E0300808BE0F8A3E0F9A3E0FAA3E0FB2274905F
:100E13002FF582E43480F58322EFF0A3EBF0A3EA0D
:100E2300F0A3E9F022E09080B1F09080B0E09080F0
:100E3300B2F02290801FE0F8A3E0F9A3E0FAA3E068
:100E4300FB22EFF0908010E004F0E0C32290805D7D
:100E5300E0B40118A3E014FFA3E014FD908059E06F
:100E6300FBA3E0908003F0121109802390805EE0E1
:100E730014FFA3E014FD7B017A807952908059E03E
:100E8300908005F090805AE0908006F0120C8390D9
:100E93008060E0FDE4FBFA7F8012062B1213D980F9
:100EA300EE13135401900000F0900000E022FFA322
:100EB300E0FBA3E0FAA3E0F922EBF0A3EAF0A3E955
:100EC300F022E0FBA3E475F0011201F9A9F0FA2284
:100ED300EF5401C454F0FFE054EF4FF022900000B0
:100EE300E07F01224FF0E0FD7F1D22908046EFF06E
:100EF300A3F0C29122908045120E1CC290908046AE
:100F0300120DFA4A4B700C90808FE0FDE4FF120043
:100F1300038031908045E090808FF0E0FDE4FF1284
:100F23000003E4FF908045E0FEEFC39E5016A3123A
:100F33000DFAF98F82758300120165FE120E11EE10
:100F4300F00F80E0D29022C0E0C0F0C083C082C026
:100F5300D075D000C000C001C002C003C004C005EA
:100F6300C006C0079080C1E0FBA3E0FAA3E04A4BB0
:100F7300600A9080C1A3A3E0F912037AD007D006D8
:100F8300D005D004D003D002D001D000D0D0D0827D
:100F9300D083D0F0D0E03290805DE06401702D907A
:100FA300805BE0B4020812131B121147802A908061
:100FB3005BE0640170221211C112131B1209F27B50
:100FC300FF7A127961121498D2B9800C12131B9014
:100FD300801312132B120B94E4FBFA7DFA7F021297
:100FE300062B80F490808712034900000000908054
:100FF3008F74FFF090808B1203490000000074FF90
:101003009080B8F0A3F0E49080B0F0A37450F0E4C3
:10101300A3F0FF74B32FF582E43480F583E4F00F7B
:10102300EFB405EFE4FF120E11E4F00FEFB420F676
:1010330022E4908041F07B017A8079211215199086
:10104300801FEEF0A3EFF0E490801FF0A3E0F09098
:10105300808FE0FF90801FE07003A3E06F60069035
:1010630080417403F090801FE0A3E0FF7B017A804E
:101073007921120768908041E0FF22908045EFF0CC
:10108300E4FF12148B908046EFF0908045E01460EB
:101093001014601A24027021908046E054F7F08007
:1010A30018908046E04408F0E054FBF0800B9080F9
:1010B30046E04408F0E04404F0908046E0FDE4FF9D
:1010C3000213B6908045EFF07F0612148B90804692
:1010D300EFF0908045E0600C24FE7015908046E0B0
:1010E30044208006908046E054DFF0E054F7F0801F
:1010F3000B908046E054DFF0E04408F0908046E037
:10110300FD7F060213B6908000EFF0A3EDF0908010
:10111300B0EBF0908003120E28C290E4FF121292FB
:101123007F01121345908000E0FF1213919080011C
:10113300E0FF1210C6E4FF12107E7F0112122FD2BD
:10114300907F0022908010EFF0A3EDF0A3EBF0C2AC
:1011530090E4FF121292908010E0FF1214597F0165
:10116300121345908011E0FF121391908012E0FF5B
:101173001210C6E4FF12107E7F0112122FD2907F4D
:10118300002260208064AA1B2C108101111AFEEE3C
:10119300CD1213A9921314177D12DFFDAAAF276591
:1011A30041433A2DC155458052E3B2AAE5534280EB
:1011B30061FECD4380C1000000418086000012150E
:1011C3000AE4908010F01211F9908010E024B3F536
:1011D30082E43480F583120E45940540E9E490805F
:1011E30010F01211F9908010E02490120E14120ED8
:1011F30045942040ED229080C4E0FBE4FE9080C43F
:10120300E0FD5480C4540FFCED54086CD37001C34B
:1012130092029080C4E025E0FDF0A200E4334DF09B
:10122300A20292000EEEB408D4AF032290804EEFD8
:10123300F07F0612148B90804FEFF090804EE07F8A
:101243000060027F01EF5401C43333335480FF90B5
:10125300804FE0547F4FF0E0FD7F060213B6D2903B
:101263001214CE1214A4908086E0D394134019C2B2
:1012730090E4F09080107414F0D290908010E0FF0E
:1012830014F0EF70F6C29022908086E004F0229072
:101293008045EFF0E4FF12148B908046EFF09080CE
:1012A30045E0B40107A3E04401F08007908046E0E5
:1012B30054FEF0908046E0FDE4FF0213B690804EAA
:1012C300EFF0E4FF12148B90804FEFF090804EE02C
:1012D300B40107A3E04402F0800790804FE054FD7F
:1012E300F090804FE0FDE4FF0213B6AB07AE04AF0E
:1012F300057C007DFA1201A4EF14540FC454F0FFCF
:10130300908045E0540F4FF0EB540FFFE054F04F43
:10131300F0E0FD7F040213B6908058E0FF90805EFA
:10132300E014FDA3E014FB227A8079527401F0A348
:101333007480F0A37452F0229080BDE0FF9080BCD3
:10134300E022908045EFF07F0612148B908046EFE9
:10135300F0908045E07F0060027F01908046120E8E
:10136300D3E0FD7F060213B690804A120EBCC291F1
:10137300801490804DE0FF14F0EF600F90804A12CC
:101383000EC512014CFF1214F680E7D29122908011
:1013930045EFF07F0612148B908046EFF090804566
:1013A300E0540325E0FFA3E054F94FF0E0FD7F068E
:1013B3000213B6908050EDF0C291EF2420FF121477
:1013C300F6908051EFF0908050E0FF1214F6D29126
:1013D300908051E0FF22C2909080B2E0FF12145936
:1013E300D2909080B2E004F09080B1E0FFA3E0D30C
:1013F3009F4003120E2D229080C1E4F0A3F0A3F0CE
:10140300C29043E610D2927F011212C07F030214EE
:101413002CC2B91214E21214A4C290E4FF12122FC8
:101423007B007A007900021498EFD394004011E412
:10143300FDFC0DBD00010CBC06F8BD2CF51F80E9B9
:1014430022EF24FE5403FF908045E054FC4FF0E06C
:10145300FD7F030213B6EF547FFF908045E0548075
:101463004FF0E0FD7F050213B69080BEEFF0A3EDD1
:10147300F0A37401F075BD0B2243950F43C90275A8
:10148300A601D2BA43BC0122C2911214F6E4FF12A0
:1014930014F6D291229080C1EBF0A3EAF0A3E9F015
:1014A300227D707F071213B6EF5470FF227F031261
:1014B300148BEF2402FF2290804DEDF07FA00213E6
:1014C3006B1214ECEF540EC313FF22C2917FE3128D
:1014D30014F6D29122C2917FE21214F6D29122C263
:1014E300917FE11214F6D29122C2917FFF1214F67A
:1014F300D291228FE5C2C030C0FDAFE522068A0E2D
:10150300500F9A0D9C0CE49080C474FFF0D200221B
:101513007F6012148B227F08120B0A22AA1B2C1045
:101523008101111AFEEECD1213A9921314177D1225
:0C153300DFFDAAAF276541433A2DC155EA
:00000001FF
