:020000040000FA
:200000000C945C000C946E000C946E000C946E000C946E000C946E000C946E000C946E0082
:200020000C946E000C946E000C946E000C946E000C946E000C946E000C946E000C946E0050
:200040000C9413010C946E000C946E000C946E000C946E000C946E000C946E000C946E008A
:200060000C946E000C946E0000000000240027002A0000000000250028002B000404040467
:200080000404040402020202020203030303030301020408102040800102040810200102F1
:2000A00004081020000000080002010000030407000000000000000011241FBECFEFD8E063
:2000C000DEBFCDBF21E0A0E0B1E001C01D92A930B207E1F70E945D010C94CC010C940000FE
:2000E000E1EBF0E02491EDE9F0E09491E9E8F0E0E491EE23C9F0222339F0233001F1A8F4B5
:20010000213019F1223029F1F0E0EE0FFF1FEE58FF4FA591B4912FB7F894EC91811126C0B7
:2001200090959E239C932FBF08952730A9F02830C9F0243049F7209180002F7D03C0209139
:2001400080002F7720938000DFCF24B52F7724BDDBCF24B52F7DFBCF2091B0002F77209385
:20016000B000D2CF2091B0002F7DF9CF9E2BDACF3FB7F8948091050190910601A0910701ED
:20018000B091080126B5A89B05C02F3F19F00196A11DB11D3FBFBA2FA92F982F8827BC01A6
:2001A000CD01620F711D811D911D42E0660F771F881F991F4A95D1F708958F929F92AF92C3
:2001C000BF92CF92DF92EF92FF920E94B8004B015C0188EEC82E83E0D82EE12CF12C0E9446
:2001E000B800681979098A099B09683E734081059105A8F321E0C21AD108E108F10888EEEF
:20020000880E83E0981EA11CB11CC114D104E104F10429F7FF90EF90DF90CF90BF90AF9097
:200220009F908F9008951F920F920FB60F9211242F933F938F939F93AF93BF938091010157
:2002400090910201A0910301B09104013091000123E0230F2D3758F50196A11DB11D209381
:2002600000018093010190930201A0930301B09304018091050190910601A0910701B0910A
:2002800008010196A11DB11D8093050190930601A0930701B0930801BF91AF919F918F9188
:2002A0003F912F910F900FBE0F901F90189526E8230F0296A11DB11DD2CF789484B582601B
:2002C00084BD84B5816084BD85B5826085BD85B5816085BD80916E00816080936E00109244
:2002E000810080918100826080938100809181008160809381008091800081608093800069
:200300008091B10084608093B1008091B00081608093B00080917A00846080937A00809101
:200320007A00826080937A0080917A00816080937A0080917A00806880937A001092C10078
:20034000EDE9F0E02491E9E8F0E08491882399F090E0880F991FFC01E859FF4FA591B49192
:20036000FC01EE58FF4F859194918FB7F894EC91E22BEC938FBFC0E0D0E081E00E947000C5
:1C0380000E94DD0080E00E9470000E94DD002097A1F30E940000F1CFF894FFCFEA
:207E000001C0DAC0112484B7882361F0982F9A70923041F081FF02C097EF94BF282E80E006
:207E2000B6D0EEC085E08093810082E08093C00088E18093C10086E08093C20080E18093F4
:207E4000C4008EE0A4D0259A84E020E33CEF91E0309385002093840096BBB09BFECF1D9A1B
:207E6000A8954091C00047FD02C0815089F7EE24E39495E0D92E21E1C22E7DD0813451F49F
:207E80007AD0182F8AD0113811F083E001C088E06BD067C0823411F484E103C0853419F416
:207EA00085E083D05EC0853539F465D0C82F63D0D82FCC0FDD1F54C0863521F484E075D03B
:207EC00080E0E6CF843609F02EC055D054D0F82E52D0B82E00E011E04ED0F80181938F01E9
:207EE000FE12FACF5AD0F5E4BF1201C0FFCF83E0FE0187BFE89507B600FCFDCFA0E0B1E08B
:207F0000FE018D919D910C01E7BEE89511243296FA12F7CFFE01D7BEE89507B600FCFDCF82
:207F2000C7BEE8951EC0843771F425D024D0F82E22D033D08E01F80185918F0115D0FA949C
:207F4000F110F9CF0EC0853739F427D08EE10CD085E90AD08FE09CCF813511F488E017D033
:207F60001CD080E101D089CF9091C00095FFFCCF8093C60008958091C00087FFFCCF8091A2
:207F8000C00084FD01C0A8958091C6000895E0E6F0E098E1908380830895EDDF803219F0E5
:207FA00088E0F5DFFFCF84E1DFCFCF93C82FE3DFC150E9F7CF91F1CFFC010A0167BFE895CD
:187FC000112407B600FCFDCF667029F0452B19F481E187BFE8950895C1
:027FFE00030876
:02000004008278
:03000000FFDEFD23
:02000004008377
:01000000CF30
:0400000500007E0079
:00000001FF
